:020000040800F2
:10000000E0050020C1010008752C0008C92B00087C
:10001000712C0008AD070008B13600080000000090
:10002000000000000000000000000000112D00088A
:100030005909000800000000E52C0008D52D000833
:10004000DB010008DB010008DB010008DB01000820
:10005000DB010008DB010008DB010008DB01000810
:10006000DB010008DB010008DB010008DB01000800
:10007000B1070008DB010008DB010008DB01000814
:10008000DB010008DB010008DB010008DB010008E0
:10009000DB010008DB010008DB010008DB010008D0
:1000A000DB010008DB010008DB010008DB010008C0
:1000B000DB010008DB010008DB010008DB010008B0
:1000C000DB010008DB010008DB010008DB010008A0
:1000D000DB010008DB010008DB010008A136000895
:1000E000DB010008DB010008DB010008DB01000880
:1000F000DB010008DB010008DB010008DB01000870
:10010000DB010008DB010008DB010008DB0100085F
:10011000DB010008DB010008DB010008DB0100084F
:10012000DB010008DB010008DB010008DB0100083F
:10013000DB010008DB010008DB010008DB0100082F
:10014000DB010008DB010008DB010008DB0100081F
:10015000DB010008DB010008DB010008DB0100080F
:10016000DB010008DB010008DB010008DB010008FF
:10017000DB010008DB010008DB01000800000000D3
:10018000DB010008DB010008DB010008DB010008DF
:10019000DB010008DB010008DB010008DB010008CF
:1001A000DB010008DB010008DB010008DFF80CD0F0
:1001B00000F05EFA00480047D1370008E005002053
:1001C0000648804706480047FEE7FEE7FEE7FEE7F1
:1001D000FEE7FEE7FEE7FEE7FEE7FEE7A52E0008E6
:1001E000AD0100082DE9F05F0546002092469B46D0
:1001F00088460646814640241BE02846414647463D
:10020000224600F06CF853465A46C01A914110D36A
:1002100011461846224600F053F82D1A67EB0108E4
:100220004F4622460120002100F04AF817EB000952
:100230004E41201EA4F10104DFDC484631462A4627
:100240004346BDE8F09FD2B201E000F8012B491E01
:10025000FBD270470022F6E710B513460A46044663
:100260001946FFF7F0FF204610BD421C10F8011B95
:100270000029FBD1801A704710B5002200E0521C03
:10028000835C8C5CA34201D1002BF8D1D8B2E1B2DF
:10029000401A10BD30B50B46014600202022012433
:1002A00009E021FA02F59D4205D303FA02F5491B44
:1002B00004FA02F52844151EA2F10102F1DC30BD5A
:1002C000202A04DB203A00FA02F100207047914016
:1002D000C2F1200320FA03F3194390407047202A0B
:1002E00004DB203A21FA02F00021704721FA02F3E0
:1002F000D040C2F1200291400843194670472DE9D1
:10030000FE4F804681EA0300C00F0C46009021F0AA
:10031000004123F00045B8EB0200A94105D2404658
:10032000214690461C460B46024623F000401043EF
:1003300047D0270DC7F30A00C3F30A510290401AB1
:10034000019040286BDAC3F3130040F4801B00983F
:10035000924620B10023D2EB030A63EB0B0B01980A
:100360005946C0F140025046FFF7AAFF06460D4627
:1003700050465946019A00F093F910EB080061418C
:10038000002487EA115284EAE7731A4340D0009AA6
:1003900062B3019A012A4FEA075215DC001B61EB98
:1003A00002014FF0004202EA0752CDE90042001C70
:1003B00041F5801132462B4600F093F903B0BDE8B9
:1003C000F08F40462146F9E7001B61EB0201001C5B
:1003D00041F5801300185B412018A2F5001747EB88
:1003E000030140EAD570B6196D4111E06D084FEA7E
:1003F000360645EAC0754FEA0752001B61EB020161
:10040000001C41F5801149084FEA300000195141A4
:1004100032462B4603B0BDE8F04F00F053B90098C8
:10042000012240000023D0EB020263EBE07300984E
:1004300021464FEAE074B8EB000061EB0401E9E704
:1004400083F000435BE781F0004158E72DE9FE4F60
:1004500081EA030404F0004421F0004100944FF0CD
:10046000000B23F0004350EA01045ED052EA03047B
:100470005BD0C3F30A54C1F30A552C44A4F2F334FD
:100480000194A0FB0254C1F3130141F48011C3F3A2
:10049000130343F4801301FB024400FB034E840A60
:1004A000970A44EA815447EA8357A4FB07680295F8
:1004B0008D0A05FB07854FEA932C04FB0C54270596
:1004C000029D4FEA065847EA1637B5EB08056EEB72
:1004D000070C870E920E47EA811742EA8312A7FBA8
:1004E0000201B6EB0B0164EB00042B0D43EA0C3365
:1004F0005E1844EB1C50DA465146E7FB0201C5F397
:1005000013044FEA0B3343EA14534FEA0432019CBD
:1005100043EA0603A4F10C040294009CCDE900B464
:1005200000F0DFF803B0BDE8F08F00200146F9E7E6
:100530002DE9F04D81EA030404F0004B21F0004561
:1005400014464FF0000A23F0004150EA050220D083
:1005500054EA01021DD0C5F30A570246C5F313033E
:10056000C1F31300C1F30A5640F4801543F480131D
:10057000A7EB0608101BD64608F2FD3873EB050002
:1005800002D308F1010801E092185B41B8F1000FB5
:1005900003DA00200146BDE8F08D00204FF4801101
:1005A000064684460EE0171B73EB050705D3121BA6
:1005B00063EB050306434CEA010C49084FEA30009F
:1005C00092185B4150EA0107EDD152EA030012D0C4
:1005D00082EA040083EA0501084305D0101BAB4101
:1005E00006D20122002306E000224FF0004302E081
:1005F0006FF0010253101AEB06004CEB085110EBA0
:100600000A0041EB0B01BDE8F04D00F05BB8C1F30F
:100610000A52C1F3130140F2FF3341F480119A42B0
:1006200002DA00200146704740F233439A42A2F2B8
:10063000334202DC5242FFF752BEFFF741BE0000D8
:1006400030B5041E71F1000404DB4FF00044404259
:1006500064EB0101141E73F1000405DB1C464FF02E
:100660000043524263EB0403994208BF904230BDFD
:100670001CB509480090094801900546009C06E019
:10068000E06840F0010394E8070098471034AC425A
:10069000F6D3FFF78FFD00004842000868420008CB
:1006A000202A06DBCB17203A41FA02F043EAE07336
:1006B00006E041FA02F3D040C2F120029140084323
:1006C0001946704710B5141E73F1000408DA401C77
:1006D00041F1000192185B411A4301D120F0010061
:1006E00010BD2DE9F04D92469B4611B1B1FA81F251
:1006F00002E0B0FA80F220329046FFF7E1FD0446B6
:100700000F4640EA0A0041EA0B0153465A460843A5
:1007100013D0114653EA010019D0C8F140025046E7
:10072000FFF7DDFD05460E46504659464246FFF7A7
:10073000C7FD084305D0012004E020463946BDE846
:10074000F08D0020054346EAE0762C4337430A98B3
:100750006305E40AA0EB08000022FD0A44EA4754BE
:100760000A3002D500200146E9E701051019694168
:10077000DDE9084500196941BDE8F04DA2E7000038
:1007800080B582B08DF807009DF8072040F2040084
:10079000C2F2000050F8220044F28011C0F60001BD
:1007A00031F8121000F088FE02B080BDFFE7FEE7CE
:1007B00080B540F22410C2F2000000F0B9F980BD0B
:1007C00082B001900198007810384AF6AB21CAF641
:1007D000AA21A0FB011000090090009944F27810B2
:1007E000C0F60000405C0199C8650098042807D352
:1007F000FFE701990868042262F30900886506E0B2
:100800000199086840F2FF3290438865FFE701983C
:10081000806D02B07047000086B0059000208DF812
:1008200013000598806A03900598806910BBFFE764
:100830000398029003281BD80299DFE801F0020D0B
:100840000218059890F82F00C00720B1FFE701209B
:100850008DF81300FFE70CE00598C06AB0F1C07F87
:1008600004D1FFE701208DF81300FFE701E000E06D
:10087000FFE745E005988069B0F5005F25D1FFE707
:100880000398019003281ED80199DFE801F00206C1
:10089000021101208DF8130016E0059890F82F0042
:1008A000C00720B1FFE701208DF81300FFE70BE040
:1008B0000598C06AB0F1C07F04D1FFE701208DF830
:1008C0001300FFE700E0FFE719E00398009003281A
:1008D00004D3FFE70098032804D00EE001208DF830
:1008E00013000BE0059890F82F00C00720B1FFE738
:1008F00001208DF81300FFE700E0FFE7FFE7FFE7C7
:100900009DF8130006B0704784B0039002910192E5
:10091000009303980168086820F48020086000981C
:1009200003990968486003988068402809D1FFE767
:100930000198039909688860029803990968C8605A
:1009400008E002980399096888600198039909688A
:10095000C860FFE704B070477047000080B5FFE74C
:100960000020FFF70DFF4FF4FA7000F08BFBF7E764
:1009700080B588B007908DF81B100020059004907A
:100980000390029001900090FFE700989DF81B10E3
:10099000013988420ADAFFE70798009A805C01A9CA
:1009A0008854FFE7009801300090EEE744F23621CA
:1009B000C0F6000101A8FFF75FFC38B9FFE744F279
:1009C000F010C0F6000002F01BFF16E044F24021D8
:1009D000C0F6000101A8FFF74FFC68B9FFE744F239
:1009E000B910C0F6000002F00BFF44F28210C0F60E
:1009F000000002F005FFFFE7FFE708B080BD000040
:100A000080B584B002900298806D019000F068FD7E
:100A10000090029890F8350002280DD0FFE7029967
:100A200080204865FFE70299002081F83400FFE745
:100A300001208DF80F0055E002980168086820F049
:100A40001600086002980168486920F0800048613B
:100A50000298006C20B9FFE70298806C38B1FFE77C
:100A600002980168086820F008000860FFE7029813
:100A70000168086820F001000860FFE7029800683C
:100A80000068C007C8B1FFE700F02AFD0099401ACE
:100A9000062811D3FFE70299202048650299032018
:100AA00081F83500FFE70299002081F83400FFE764
:100AB00003208DF80F0015E0E0E70298C16D3F209C
:100AC0008840019988600299012081F83500FFE78C
:100AD0000299002081F83400FFE7FFE700208DF83D
:100AE0000F00FFE79DF80F0004B080BD82B00090BA
:100AF000009890F83500022807D0FFE70099802081
:100B0000486501208DF807000EE00099052081F866
:100B1000350000980168086820F001000860FFE7D0
:100B200000208DF80700FFE79DF8070002B070472E
:100B300080B586B005900020039040F20800C2F214
:100B40000000006848F2B511C1F64E31A0FB01105B
:100B5000800A02900598806D0190019800680490C9
:100B600004980599C96DC840000700281AD5FFE709
:100B70000598006800684007002812D5FFE705982F
:100B80000168086820F0040008600598C16D08201D
:100B90008840019988600599486D40F001004865DA
:100BA000FFE7FFE704980599C96DC840C007A0B1E9
:100BB000FFE7059800684069000600280CD5FFE7AC
:100BC0000598C16D01208840019988600599486D9C
:100BD00040F002004865FFE7FFE704980599C96DFA
:100BE000C8404007002814D5FFE705980068006852
:100BF000800700280CD5FFE70598C16D04208840C8
:100C0000019988600599486D40F004004865FFE748
:100C1000FFE704980599C96DC840C006002847D56C
:100C2000FFE7059800680068000700283FD5FFE748
:100C30000598C16D1020884001998860059800686A
:100C40000068400300281AD5FFE70598006800688F
:100C50000003002809D4FFE70598006C20B1FFE7E6
:100C60000598016C8847FFE708E00598806C20B183
:100C7000FFE70598816C8847FFE7FFE716E00598D6
:100C800000680068C005002807D4FFE705980168E0
:100C9000086820F008000860FFE70598006C20B1A4
:100CA000FFE70598016C8847FFE7FFE7FFE7FFE7ED
:100CB00004980599C96DC8408006002840F18D80D0
:100CC000FFE7059800680068C006002840F18480AE
:100CD000FFE70598C16D202088400199886005983C
:100CE00090F83500052834D1FFE7059801680868B9
:100CF00020F01600086005980168486920F080001F
:100D000048610598006C20B9FFE70598806C38B100
:100D1000FFE705980168086820F008000860FFE711
:100D20000598C16D3F208840019988600599012090
:100D300081F83500FFE70599002081F83400FFE7CE
:100D40000598006D20B1FFE70598016D8847FFE722
:100D50007BE0059800680068400300281AD5FFE78B
:100D60000598006800680003002809D4FFE705988B
:100D7000406C20B1FFE70598416C8847FFE708E029
:100D80000598C06B20B1FFE70598C16B8847FFE766
:100D9000FFE720E0059800680068C005002811D42E
:100DA000FFE705980168086820F0100008600599C1
:100DB000012081F83500FFE70599002081F8340013
:100DC000FFE7FFE70598C06B20B1FFE70598C16B0F
:100DD0008847FFE7FFE7FFE7FFE70598406DA0B30F
:100DE000FFE70598406DC00730B3FFE70599052080
:100DF00081F8350005980168086820F00100086056
:100E0000FFE70398013003900299884201D9FFE778
:100E100007E0FFE7059800680068C0070028F0D1E8
:100E2000FFE70599012081F83500FFE705990020CB
:100E300081F83400FFE7FFE70598C06C20B1FFE7B9
:100E40000598C16C8847FFE7FFE706B080BD00004A
:100E500080B586B004900020039000F041FB029022
:100E6000049820B9FFE701208DF81700A3E004984B
:100E7000406A08B1FFE7FFE70499022081F83500D6
:100E8000FFE70499002081F83400FFE70498016827
:100E9000086820F001000860FFE704980068006817
:100EA000C00790B1FFE700F01BFB0299401A06282B
:100EB0000AD3FFE70499202048650499032081F8AC
:100EC00035008DF8170076E0E7E7049800680068C1
:100ED0000390039848F23F01CFF2100108400390BD
:100EE000049900914868D1F808C0CB680A6940EAC3
:100EF0000C00184310434A6910438A691043CA69B9
:100F00001043096A01430398084303900498406A18
:100F1000042808D1FFE70499C86A096B01430398C4
:100F200008430390FFE70398049909680860049850
:100F3000006840690390039820F00700039004982C
:100F4000416A0398084303900498406A04281AD120
:100F5000FFE70498816A0398084303900498C06AE5
:100F600080B1FFE70498FFF757FC50B1FFE7049901
:100F7000402048650499012081F835008DF817005C
:100F800019E0FFE7FFE703980499096848610498AE
:100F9000FFF716FC01900498C16D3F20884001992D
:100FA0008860049900204865049A012182F8351070
:100FB0008DF81700FFE79DF8170006B080BD000010
:100FC00080B588B0069005910492039300208DF8B7
:100FD0000B000698806D0190FFE7069890F83400AA
:100FE000012804D1FFE702208DF81F0045E0069993
:100FF000012081F83400FFE7FFE7069890F83500FC
:1010000001282BD1FFE70699022081F835000699C7
:101010000020486506980599049A039BFFF774FC25
:101020000698C16D3F208840019988600698016844
:10103000086840F0160008600698006C38B1FFE7B9
:1010400006980168086840F008000860FFE7069805
:101050000168086840F00100086009E0FFE70699B0
:10106000002081F83400FFE702208DF80B00FFE735
:101070009DF80B008DF81F00FFE79DF81F0008B0DA
:1010800080BD000080B584B0039000F029FA029082
:10109000039801900198013048B1FFE740F24C00FD
:1010A000C2F200000178019808440190FFE7FFE7D1
:1010B00000F016FA0299401A0199884201D2FFE71E
:1010C000F6E704B080BD000090B00F900E910020B4
:1010D0000C900B900A900D90FFE70D980F2800F2EE
:1010E000E881FFE70D99012088400C900E98006878
:1010F0000C9908400B900B980C99884240F0D481D1
:10110000FFE70E98406800F00300012807D0FFE7D2
:101110000E98406800F0030002282FD1FFE70F98D7
:1011200080680A900D984100032000FA01F10A98A6
:1011300088430A900E98C0680D99490000FA01F1A1
:101140000A9808430A900A980F9988600F98406897
:101150000A900D99012000FA01F10A9888430A903B
:101160000E984068C0F300100D9900FA01F10A983A
:1011700008430A900A980F994860FFE70E98406864
:1011800000F00300032818D0FFE70F98C0680A900A
:101190000D984100032000FA01F10A9888430A9053
:1011A0000E9880680D99490000FA01F10A980843E9
:1011B0000A900A980F99C860FFE70E98406800F0FF
:1011C0000300022826D1FFE70F980D996FF0030264
:1011D00002EA51010844006A0A900D9800F00700E5
:1011E00081000F2000FA01F10A9888430A900E98B6
:1011F00000690D9901F00701890000FA01F10A98D0
:1012000008430A900A980F990D9B02EA5302114471
:101210000862FFE70F9800680A900D9841000320CC
:1012200000FA01F10A9888430A900E98406800F08D
:1012300003000D99490000FA01F10A9808430A9049
:101240000A980F9908600E9880798007002800F0AE
:101250002A81FFE7FFE70020099043F64400C4F22B
:101260000200016841F480410160006800F48040A0
:1012700009900998FFE70D9820F0030043F6080154
:10128000C4F2010140580A900D9800F0030081005B
:101290000F2000FA01F10A9888430A900F98002164
:1012A000C4F20201884203D1FFE7002008907AE0EF
:1012B0000F9840F20041C4F20201884203D1FFE7D7
:1012C000012007906CE00F9840F60001C4F2020183
:1012D000884203D1FFE7022006905EE00F9840F6B7
:1012E0000041C4F20201884203D1FFE703200590C8
:1012F00050E00F9841F20001C4F20201884203D18C
:10130000FFE70420049042E00F9841F20041C4F24C
:101310000201884203D1FFE70520039034E00F98D3
:1013200041F60001C4F20201884203D1FFE7062022
:10133000029026E00F9841F60041C4F20201884273
:1013400003D1FFE70720019018E00F9842F2000157
:10135000C4F20201884203D1FFE7082000900AE0AE
:101360000F9942F20042C4F202020A20914208BFE1
:1013700009200090FFE700980190FFE70198029094
:10138000FFE702980390FFE703980490FFE70498B3
:101390000590FFE705980690FFE706980790FFE79E
:1013A00007980890FFE70898C0B20D9901F0030173
:1013B000890000FA01F10A9808430A900A980D99E9
:1013C00021F0030143F60802C4F20102885043F6FB
:1013D0000840C4F2010000680A900B990A988843FB
:1013E0000A900E988079C006002805D5FFE70B9972
:1013F0000A9808430A90FFE70A9843F60841C4F2A6
:101400000101086043F60C40C4F2010000680A9034
:101410000B990A9888430A900E98807980060028D4
:1014200005D5FFE70B990A9808430A90FFE70A9849
:1014300043F60C41C4F20101086043F60440C4F2D3
:10144000010000680A900B990A9888430A900E9848
:1014500080798007002805D5FFE70B990A98084393
:101460000A90FFE70A9843F60441C4F201010860BC
:1014700043F60040C4F2010000680A900B990A98F4
:1014800088430A900E988079C00728B1FFE70B992E
:101490000A9808430A90FFE70A9843F60041C4F20D
:1014A00001010860FFE7FFE7FFE70D9801300D90AD
:1014B00013E610B07047000083B00290ADF806103C
:1014C000029840690090009ABDF8060002EA000107
:1014D000904340EA01400299886103B070470000E0
:1014E00040F2D810C2F200000068704740F24C0091
:1014F000C2F20000027840F2D811C2F2000108687E
:10150000104408607047000080B582B043F6004187
:10151000C4F20201086840F400700860086840F4F2
:1015200080600860086840F480700860032000F064
:101530008BF80020019000F005F800F03BF80198CE
:1015400002B080BD80B582B0009040F20800C2F2C7
:101550000000006840F24C01C2F200010A784FF42A
:101560007A71B1FBF2F1B0FBF1F000F005FE20B1B1
:10157000FFE701208DF8070018E000980F280DD82C
:10158000FFE700994FF0FF30002200F043F8009889
:1015900040F25001C2F20001086003E001208DF822
:1015A000070003E000208DF80700FFE79DF8070023
:1015B00002B080BD82B0FFE70020019043F64400F6
:1015C000C4F20200016841F480410160006800F447
:1015D000804001900198FFE7FFE70020009043F66C
:1015E0004000C4F20200016841F0805101600068CF
:1015F00000F0805000900098FFE702B070470000B4
:1016000080B582B08DF807009DF9070002F080F8E0
:1016100002B080BD80B586B08DF8170004910392AA
:101620000020029002F08CF802909DF917000190C2
:1016300002980499039A01F01FFB0146019802F0F9
:1016400087F806B080BD000080B582B00190019897
:1016500002F0A0F802B080BD80B584B000200290F6
:10166000FFE70020019043F64000C4F20200016849
:1016700041F080510160006800F0805001900198B5
:10168000FFE74021C4F20E2101200860FFF728FF88
:101690000290FFE747F20400C4F20000006800F483
:1016A0008030B0F5803F0DD0FFE7FFF719FF0299BA
:1016B000401AB0F57A7F04D9FFE703208DF80F00B8
:1016C00025E0E7E74421C4F20E2101200860FFF77E
:1016D00007FF0290FFE747F20400C4F20000006831
:1016E00000F40030B0F5003F0DD0FFE7FFF7F8FE43
:1016F0000299401AB0F57A7F04D9FFE703208DF8EC
:101700000F0004E0E7E700208DF80F00FFE79DF8E9
:101710000F0004B080BD000080B584B0029001913C
:10172000029820B9FFE701208DF80F0021E1019810
:1017300043F60041C4F20201096801F00F0188423A
:1017400012D9FFE7019943F60040C4F2020001708C
:10175000006800F00F000199884204D0FFE70120E3
:101760008DF80F0005E1FFE7029800788007002858
:101770002AD5FFE7029800784007002809D5FFE73F
:1017800043F60801C4F20201086840F4E050086022
:10179000FFE7029800780007002809D5FFE743F625
:1017A0000801C4F20201086840F460400860FFE7E5
:1017B00043F60801C4F20201086820F0F000029A22
:1017C000926810430860FFE702980078C00700287D
:1017D0006ED0FFE702984068012811D1FFE743F679
:1017E0000000C4F20200006800F400310020B0EBF9
:1017F000514F04D1FFE701208DF80F00B9E02CE034
:1018000002984068022805D0FFE702984068032844
:1018100011D1FFE743F60000C4F20200006800F0B7
:1018200000710020B0EB516F04D1FFE701208DF86B
:101830000F009EE010E043F60000C4F202000068D2
:1018400000F002010020B0EB510F04D1FFE70120AE
:101850008DF80F008DE0FFE7FFE743F60801C4F2C3
:101860000201086820F00300029A526810430860E1
:10187000FFF736FE0090FFE743F60800C4F20200CF
:10188000006800F00C0002994968B0EB810F0ED09F
:10189000FFE7FFF725FE0099401A41F2893188429F
:1018A00004D3FFE703208DF80F0062E0E4E7FFE7D1
:1018B000019843F60041C4F20201096801F00F01EA
:1018C000884212D2FFE7019943F60040C4F20200B9
:1018D0000170006800F00F000199884204D0FFE712
:1018E00001208DF80F0044E0FFE7029800784007E0
:1018F00000280CD5FFE743F60801C4F2020108688E
:1019000020F4E050029AD26810430860FFE7029882
:101910000078000700280DD5FFE743F60801C4F260
:101920000201086820F46040029A126940EAC2008D
:101930000860FFE700F04CF843F60801C4F202012A
:101940000968C9B20A0944F26011C0F60001895C55
:10195000C84040F20801C2F20001086040F25000A5
:10196000C2F200000068FFF7EDFD00208DF80F00C7
:10197000FFE79DF80F0004B080BD000040F20800B2
:10198000C2F200000068704780B5FFF7F7FF43F62A
:101990000801C4F202010968C1F3822244F2701105
:1019A000C0F60001895CC84080BD000080B5FFF72B
:1019B000E5FF43F60801C4F20201096889B24A0B47
:1019C00044F27011C0F60001895CC84080BD00007F
:1019D00080B586B00020059004900390029043F6F5
:1019E0000800C4F20200006800F00C0001460191FA
:1019F00040B1FFE7019804280AD0FFE701980828C2
:101A00000CD04FE042F20040C0F2F40002904FE0F0
:101A100047F64000C0F27D10029049E043F6040012
:101A2000C4F20200016801F03F0105910068400224
:101A3000002813D5FFE743F60400C4F20200006853
:101A4000C0F3881047F64001C0F27D11A0FB0101F0
:101A5000059A0023FEF7C6FB049012E043F604004B
:101A6000C4F202000068C0F3881042F20041C0F2E4
:101A7000F401A0FB0101059A0023FEF7B3FB0490DB
:101A8000FFE743F60400C4F20200006800F44031AE
:101A9000022000EBD130039004980399B0FBF1F0E1
:101AA000029005E042F20040C0F2F4000290FFE72D
:101AB000029806B080BD000080B586B004900498FE
:101AC00020B9FFE701208DF8170050E30498007853
:101AD000C007002800F0A580FFE743F60800C4F225
:101AE0000200006800F00C00042813D0FFE743F662
:101AF0000800C4F20200006800F00C0008281ED1A3
:101B0000FFE743F60400C4F2020000684002002828
:101B100015D5FFE743F60000C4F20200006800F4A8
:101B200000310020B0EB514F08D0FFE70498406827
:101B300020B9FFE701208DF8170018E370E0FFE7F8
:101B400004984068B0F5803F09D1FFE743F60001F3
:101B5000C4F20201086840F48030086020E0049874
:101B60004068B0F5A02F0DD1FFE743F60001C4F2A5
:101B70000201086840F480200860086840F4803062
:101B800008600CE043F60001C4F20201086820F48A
:101B900080300860086820F480200860FFE7FFE7D5
:101BA000FFE704984068E8B1FFE7FFF799FC03906E
:101BB000FFE743F60000C4F20200006800F40031C1
:101BC0000020B0EB514F0CD1FFE7FFF789FC0399E0
:101BD000401A652804D3FFE703208DF81700C6E2FA
:101BE000E7E71CE0FFF77CFC0390FFE743F600000B
:101BF000C4F20200006800F400310020B0EB514F45
:101C00000CD0FFE7FFF76CFC0399401A652804D35A
:101C1000FFE703208DF81700A9E2E7E7FFE7FFE7FA
:101C2000FFE7049800788007002840F19680FFE7DE
:101C300043F60800C4F20200006810F00C0F13D045
:101C4000FFE743F60800C4F20200006800F00C0051
:101C500008282CD1FFE743F60400C4F20200006814
:101C60004002002823D4FFE743F60000C4F202003C
:101C7000006800F002010020B0EB510F09D0FFE72F
:101C80000498C068012804D0FFE701208DF81700F0
:101C90006DE243F60001C4F20201086820F0F8008A
:101CA000049A126940EAC2000860FFE754E0049811
:101CB000C06870B3FFE70021C4F24721012008602B
:101CC000FFF70EFC0390FFE743F60000C4F20200AA
:101CD000006800F002010020B0EB510F0CD1FFE7CB
:101CE000FFF7FEFB0399401A032804D3FFE7032004
:101CF0008DF817003BE2E7E743F60001C4F202016A
:101D0000086820F0F800049A126940EAC2000860EE
:101D100021E00021C4F2472100200860FFF7E0FB2A
:101D20000390FFE743F60000C4F20200006800F0F1
:101D300002010020B0EB510F0CD0FFE7FFF7D0FB02
:101D40000399401A032804D3FFE703208DF81700F6
:101D50000DE2E7E7FFE7FFE7FFE7049800780007F9
:101D600000284BD5FFE70498406918B3FFE740F619
:101D70008061C4F2472101200860FFF7B1FB0390A6
:101D8000FFE743F67400C4F20200006800F00201AD
:101D90000020B0EB510F0CD1FFE7FFF7A1FB039937
:101DA000401A032804D3FFE703208DF81700DEE173
:101DB000E7E722E040F68061C4F247210020086096
:101DC000FFF78EFB0390FFE743F67400C4F20200B6
:101DD000006800F002010020B0EB510F0CD0FFE7CB
:101DE000FFF77EFB0399401A032804D3FFE7032083
:101DF0008DF81700BBE1E7E7FFE7FFE704980078FD
:101E00004007002840F1CE80FFE700208DF8070052
:101E100043F64000C4F202000068C000002815D458
:101E2000FFE7FFE70020009043F64000C4F2020005
:101E3000016841F080510160006800F0805000901E
:101E40000098FFE701208DF80700FFE747F2000048
:101E5000C4F200000068C005002822D4FFE747F262
:101E60000001C4F20001086840F480700860FFF7C8
:101E700037FB0390FFE747F20000C4F20000006860
:101E8000C00500280CD4FFE7FFF72AFB0399401A8E
:101E9000032804D3FFE703208DF8170067E1EAE782
:101EA000FFE7FFE704988068012809D1FFE743F6C0
:101EB0007001C4F20201086840F0010008601FE0F0
:101EC0000498806805280DD1FFE743F67001C4F23D
:101ED0000201086840F004000860086840F0010052
:101EE00008600CE043F67001C4F20201086820F0BB
:101EF00001000860086820F004000860FFE7FFE7C1
:101F0000FFE704988068F8B1FFE7FFF7E9FA03906C
:101F1000FFE743F67000C4F20200006800F002011F
:101F20000020B0EB510F0ED1FFE7FFF7D9FA03996C
:101F3000401A41F28931884204D3FFE703208DF82B
:101F4000170014E1E5E71EE0FFF7CAFA0390FFE788
:101F500043F67000C4F20200006800F002010020A5
:101F6000B0EB510F0ED0FFE7FFF7BAFA0399401A12
:101F700041F28931884204D3FFE703208DF817002E
:101F8000F5E0E5E7FFE79DF80700012809D1FFE745
:101F900043F64001C4F20201086820F08050086056
:101FA000FFE7FFE704988069002800F0DC80FFE786
:101FB00043F60800C4F20200006800F00C00082894
:101FC00000F08580FFE70498806902285CD1FFE774
:101FD0006021C4F2472100200860FFF781FA0390D6
:101FE000FFE743F60000C4F20200006800F0007151
:101FF0000020B0EB516F0CD0FFE7FFF771FA0399A7
:10200000401A032804D3FFE703208DF81700AEE041
:10201000E7E70499C869D1F820C04B6A8A6A40EAA8
:102020000C0040EA8310D2034FF6FF739A43A2F5E7
:1020300080321043C96A40EA016043F60401C4F2E9
:10204000020108606021C4F2472101200860FFF707
:1020500047FA0390FFE743F60000C4F2020000686D
:1020600000F000710020B0EB516F0CD1FFE7FFF7DB
:1020700037FA0399401A032804D3FFE703208DF8A9
:10208000170074E0E7E721E06021C4F24721002057
:102090000860FFF725FA0390FFE743F60000C4F25B
:1020A0000200006800F000710020B0EB516F0CD00E
:1020B000FFE7FFF715FA0399401A032804D3FFE757
:1020C00003208DF8170052E0E7E7FFE74AE00498A5
:1020D0008069012804D1FFE701208DF8170046E050
:1020E00043F60400C4F2020000680290049880697C
:1020F000012831D0FFE7029800F480000499C969F3
:10210000884229D1FFE7029800F03F000499096A4C
:10211000884221D1FFE7029847F6C0710840049930
:10212000496AB0EB811F17D1FFE7029800F44030F5
:102130000499896AC9034FF6FF729143A1F5803172
:10214000884209D1FFE7029800F070600499C96ADB
:10215000B0EB016F04D0FFE701208DF8170006E017
:10216000FFE7FFE7FFE700208DF81700FFE79DF886
:10217000170006B080BD000080B582B001900198C4
:1021800000F0FEFD02B080BD80B586B004900391E2
:10219000ADF80A20049890F8420020284DD1FFE7BE
:1021A000039820B1FFE7BDF80A0020B9FFE701203E
:1021B0008DF8170045E00499012008630499002078
:1021C000486304980399BDF80A2001F02BF98DF8B3
:1021D00009009DF8090058BBFFE70498006B01282F
:1021E00021D1FFE7FFE70020019004980068006814
:1021F000019004980068406801900198FFE7FFE7AC
:10220000FFE70498006850E8030F40F010000090CA
:10221000FFE700990498026842E803100028F0D113
:10222000FFE7FFE703E001208DF80900FFE7FFE784
:102230009DF809008DF8170003E002208DF81700C3
:10224000FFE79DF8170006B080BD000080B58AB09A
:102250000990ADF82210BDF8220040F25901C2F2F7
:1022600000010978884200F01A81FFE7BDF82200DA
:1022700040F25901C2F200010978884236DDFFE7D9
:10228000BDF8220040F25901C2F200010978401A5B
:1022900040F2D411C2F20001086000208DF81B004A
:1022A000FFE79DF81B0040F2D411C2F2000109685B
:1022B00088421AD2FFE740F25900C2F200000078CB
:1022C0009DF81B20811840F2BE00C2F20000405C65
:1022D00040F2D011C2F2000109688854FFE79DF86E
:1022E0001B0001308DF81B00DBE76AE040F259006B
:1022F000C2F200000078C0F1320040F2D411C2F204
:102300000001086000208DF81B00FFE79DF81B000E
:1023100040F2D411C2F20001096888421AD2FFE7E4
:1023200040F25900C2F2000000789DF81B2081188D
:1023300040F2BE00C2F20000405C40F2D011C2F296
:10234000000109688854FFE79DF81B0001308DF8F3
:102350001B00DBE7BDF82200012831DBFFE700208E
:102360008DF81B00FFE79DF81B00BDF82210884286
:102370001CDAFFE79DF81B1040F2BE00C2F200001D
:10238000405C40F2D011C2F20001096840F2D41260
:10239000C2F2000212689DF81B301A448854FFE70D
:1023A0009DF81B0001308DF81B00DCE7BDF82220F2
:1023B00040F2D411C2F20001086810440860FFE73F
:1023C000FFE7099840F2D011C2F2000105910968B7
:1023D00040F2D412C2F20002126892B201F06AF91D
:1023E000059A1068079040F2CC10C2F20000016814
:1023F0001160079901600168097840F25802C2F241
:10240000000292F800C040F2F003C2F2000303F8A9
:102410000C10117801311170006800780D282ED150
:10242000FFE740F28410C2F20000009040F2000189
:10243000C2F2000101910222029200F055FC0098C4
:1024400040F25801C2F2000104910A7840F2F00112
:10245000C2F20001039100F047FC00980199029A32
:1024600000F042FC039804990978FEF781FA03987A
:102470003221FDF7EFFE049900200870FFE740F2DB
:102480005800C2F200000078322807DBFFE740F274
:102490005801C2F2000100200870FFE7FFE79DF835
:1024A000220040F25901C2F2000108700AB080BD5A
:1024B00081B0009001B0704780B592B01190119832
:1024C00000680068109011980068C0680F9011981B
:1024D000006840690E9000200D900C90109800F05C
:1024E0000F000D900D9888B9FFE79DF84000800619
:1024F00000280AD5FFE79DF83C008006002804D597
:10250000FFE7119800F03AFEEAE1FFE70D98002896
:1025100000F0C280FFE79DF83800C00738B9FFE738
:10252000BDF83C0010F4907F00F0B680FFE79DF806
:102530004000C00758B1FFE79DF83D00C00730B12B
:10254000FFE71199486C40F001004864FFE79DF8EF
:102550004000400700280BD5FFE79DF83800C00772
:1025600030B1FFE71199486C40F002004864FFE782
:102570009DF84000800700280BD5FFE79DF8380044
:10258000C00730B1FFE71199486C40F0040048647F
:10259000FFE79DF840000007002811D5FFE79DF8F0
:1025A0003C008006002805D4FFE79DF83800C007EE
:1025B00030B1FFE71199486C40F008004864FFE72C
:1025C0001198406C002866D0FFE79DF84000800617
:1025D00000280AD5FFE79DF83C008006002804D5B6
:1025E000FFE7119800F0CAFDFFE711980068406905
:1025F000C0F380100C901198406C0007002804D4A0
:10260000FFE70C9800283ED0FFE7119800F03CFD52
:10261000119800684069400600282FD5FFE7FFE7C2
:10262000FFE71198006850E8050F20F040000B907C
:10263000FFE70B991198026842E805100028F0D1D5
:10264000FFE7FFE71198C06B98B1FFE71198C16BE6
:1026500042F6C560C0F6000008651198C06BFEF731
:1026600045FA28B1FFE71198C06B016D8847FFE775
:1026700003E01198FFF71CFFFFE703E01198FFF755
:1026800017FFFFE706E01198FFF712FF11990020EE
:102690004864FFE7FFE723E11198006B012840F051
:1026A000FF80FFE79DF84000C006002840F1F88059
:1026B000FFE79DF83C00C006002840F1F180FFE7ED
:1026C000FFE700200A901198006800680A901198AE
:1026D000006840680A900A98FFE71198006840690E
:1026E0004006002840F18280FFE71198C06B006827
:1026F0004068ADF82600BDF82600002875D0FFE739
:10270000BDF826001199898D88426EDAFFE7BDF881
:1027100026001199C8851198C06BC069B0F5807FFB
:1027200058D0FFE7FFE7FFE71198006850E8030F74
:1027300020F480700890FFE708991198026842E839
:1027400003100028F0D1FFE7FFE7FFE7FFE711984C
:10275000006850E8050F20F001000790FFE7079997
:102760001198026842E805100028F0D1FFE7FFE762
:10277000FFE7FFE71198006850E8050F20F04000E0
:102780000690FFE706991198026842E805100028B4
:10279000F0D1FFE7FFE71199202081F8420011995D
:1027A00000200863FFE7FFE71198006850E8030F77
:1027B00020F010000590FFE705991198026842E8A3
:1027C00003100028F0D1FFE7FFE71198C06BFEF778
:1027D00017F9FFE71199022048631198818DC28D86
:1027E000891A89B2FFF732FDFFE779E01199888DE8
:1027F000C98D401AADF812001198C08D00284ED036
:10280000FFE7BDF81200002849D0FFE7FFE7FFE728
:102810001198006850E8030F20F490700390FFE7D0
:1028200003991198026842E803100028F0D1FFE7ED
:10283000FFE7FFE7FFE71198006850E8050F20F079
:1028400001000290FFE702991198026842E8051022
:102850000028F0D1FFE7FFE71199202081F842001E
:10286000119900200863FFE7FFE71198006850E81E
:10287000030F20F010000190FFE701991198026802
:1028800042E803100028F0D1FFE7FFE7119902208A
:1028900048631198BDF81210FFF7D8FCFFE71FE05E
:1028A0009DF84000000600280AD5FFE79DF83C008F
:1028B0000006002804D5FFE7119800F039FE0FE06C
:1028C0009DF84000400600280AD5FFE79DF83C002F
:1028D0004006002804D5FFE7119800F01FFCFFE731
:1028E00012B080BD80B582B00090009820B9FFE79B
:1028F00001208DF8070040E00098806908B1FFE7EB
:1029000000E0FFE7009890F8410040B9FFE7009928
:10291000002081F84000009800F034F8FFE70099AB
:10292000242081F8410000980168C86820F4005014
:10293000C860009800F0D8FC00980168086920F48D
:102940009040086100980168486920F02A004861B9
:1029500000980168C86840F40050C86000990020E1
:102960004864009A202182F84110009A82F84210AF
:10297000009948638DF80700FFE79DF8070002B053
:1029800080BD000080B58AB00990002008900790B3
:102990000690059004900998006844F60001C4F27E
:1029A0000001884269D1FFE7FFE70020039043F66A
:1029B0004000C4F20200016841F480210160006817
:1029C00000F4802003900398FFE7FFE700200290C7
:1029D00043F63000C4F20200016841F008010160D2
:1029E000006800F0080002900298FFE74FF4407082
:1029F00004900220059001200690032007900720F4
:102A0000089040F60040C4F2020004A9FEF75CFB07
:102A100040F22410C2F20000019046F22801C4F2F4
:102A2000020101604FF00061416000218160C160DE
:102A30004FF480620261416181614FF48072C26132
:102A400001624162FEF704FA18B1FFE7FDF786FF65
:102A5000FFE7FFE7099840F22411C2F20001C163C9
:102A600009988863FFE72720009000221146FEF7AF
:102A7000D1FD0098FEF7C4FDFFE70AB080BD00005D
:102A800081B0009001B0704781B0009001B07047F4
:102A900080B58AB008900791ADF81A200593002000
:102AA0000290089890F84100202840F08180FFE7CC
:102AB000079820B1FFE7BDF81A0020B9FFE7012011
:102AC0008DF8270078E008990020486408992120B3
:102AD00081F84100FEF704FD0290BDF81A00089944
:102AE0008884BDF81A000899C88408988068B0F5F1
:102AF000805F09D1FFE70898006928B9FFE7002047
:102B000004900798039004E0079804900020039035
:102B1000FFE7FFE70898C08C78B3FFE70898029BAF
:102B200005996A4611608021002200F04BFD40B1FA
:102B3000FFE70899202081F8410003208DF8270045
:102B40003AE0049858B9FFE7039800886FF35F20D4
:102B500008990968486003980230039008E00498D7
:102B60000078089909684860049801300490FFE7EC
:102B70000899C88C0138C884CCE70898029B05994D
:102B80006A4611604021002200F01CFD40B1FFE7C1
:102B90000899202081F8410003208DF827000BE0E0
:102BA0000899202081F8410000208DF8270003E0DB
:102BB00002208DF82700FFE79DF827000AB080BDAE
:102BC00081B0009001B07047FFE7FEE780B582B0AA
:102BD000FFE70020019043F63000C4F202000168D4
:102BE00041F400110160006800F4001001900198A8
:102BF000FFE70C20009000221146FEF70BFD009825
:102C0000FEF7FEFC02B080BD81B0FFE7002000901F
:102C100043F63000C4F20200016841F0080101608F
:102C2000006800F0080000900098FFE701B07047CE
:102C300080B582B040F28410C2F20000019044F6E8
:102C40000001C4F2000101604FF4E1314160002154
:102C50008160C16001610C2242618161C161FFF745
:102C600041FE18B1FFE7FDF779FEFFE702B080BD36
:102C7000FFE7FEE77047000088B0079006910592D5
:102C8000079800F0070004900498C0F10700052899
:102C900003D3FFE70420019004E00498C0F107008B
:102CA0000190FFE70198039004980430062803D8A8
:102CB000FFE70020009003E0049803380090FFE74E
:102CC0000098029006980399012202FA01F1013955
:102CD0000840029B984005999A40013A11400843E8
:102CE00008B070477047000080B584B0039002912F
:102CF000ADF8062003980299BDF806206423FFF77B
:102D0000C7FE18B1FFE7FDF729FEFFE704B080BD5D
:102D10007047000080B582B040F2CC11C2F20001D1
:102D200040F25A00C2F20000086040F2D011C2F234
:102D3000000140F28C00C2F20000086040F2D411A1
:102D4000C2F200010020086040F28410C2F20000CC
:102D5000019040F20C01C2F200014022FFF7C4FFD3
:102D6000019840F2BE01C2F200013222FFF70CFAD4
:102D700018B1FFE7FDF7F2FDFFE702B080BD0000EC
:102D800080B582B0009000980138B0F1807F03D305
:102D9000FFE70120019019E0009801384EF214017C
:102DA000CEF2000108604FF0FF300F2100F0D0FCA0
:102DB0004EF21801CEF20001002008604EF210021F
:102DC000CEF20002072111600190FFE7019802B0E6
:102DD00080BD000080B5FEF789FB80BD80B594B052
:102DE00008A83021FDF736FA0020079006900590DC
:102DF00004900390FFE70020029043F64000C4F2E5
:102E00000200016841F080510160006800F08050CC
:102E100002900298FFE7FFE70020019047F20000D0
:102E2000C4F20000016841F440410160006800F410
:102E3000404001900198FFE70220089001210B918A
:102E400010210C910E9000210F9108211091B421B6
:102E5000119112900420139008A8FEF72DFE18B1CE
:102E6000FFE7FDF77BFDFFE7FEF7F6FB18B1FFE795
:102E7000FDF774FDFFE70F2003900220049000206F
:102E800005904FF4A05006904FF48050079003A88F
:102E90000521FEF741FC18B1FFE7FDF75FFDFFE7F5
:102EA00014B080BD4EF68851CEF20001086840F49F
:102EB000700008604EF60851CEF200014FF000603D
:102EC0000860704780B582B001900198806B0090D7
:102ED00000990020C8850099C8840098FFF7E8FA97
:102EE00002B080BD80B584B00390002002900398AA
:102EF000806B0190019800684069C0B2C0090290DF
:102F0000019890F8410021280AD1FFE7029838B1D2
:102F1000FFE701990020C884019800F013F9FFE74A
:102F2000019800684069C0F380100290019890F801
:102F3000420022280AD1FFE7029838B1FFE7019941
:102F40000020C885019800F09FF8FFE70199486CC0
:102F500040F0100048640198FFF7AAFA04B080BD61
:102F600080B586B005900598806B04900598006840
:102F70000068C00500285AD4FFE704990020C885DE
:102F8000FFE7FFE70498006850E8030F20F4807023
:102F90000390FFE703990498026842E803100028B1
:102FA000F0D1FFE7FFE7FFE7FFE70498006850E88C
:102FB000050F20F001000290FFE7029904980268D3
:102FC00042E805100028F0D1FFE7FFE7FFE7FFE741
:102FD0000498006850E8050F20F040000190FFE7DA
:102FE00001990498026842E805100028F0D1FFE733
:102FF000FFE70499202081F842000498006B012823
:1030000014D1FFE7FFE7FFE70498006850E8030FDB
:1030100020F010000090FFE700990498026842E851
:1030200003100028F0D1FFE7FFE7FFE7FFE704996F
:10303000002048630498006B012805D1FFE704983D
:10304000818DFFF703F903E00498FFF719FDFFE70F
:1030500006B080BD80B582B001900198806B009071
:103060000099012048630098006B012806D1FFE712
:103070000098818D4908FFF7E9F803E00098FFF711
:1030800003FDFFE702B080BD84B00390FFE7FFE7D8
:103090000398006850E8030F20F490700290FFE757
:1030A00002990398026842E803100028F0D1FFE774
:1030B000FFE7FFE7FFE70398006850E8050F20F0FF
:1030C00001000190FFE701990398026842E80510AA
:1030D0000028F0D1FFE7FFE70398006B012814D127
:1030E000FFE7FFE7FFE70398006850E8030F20F0D1
:1030F00010000090FFE700990398026842E803106F
:103100000028F0D1FFE7FFE7FFE70399202081F8CF
:10311000420003990020086304B0704780B582B074
:10312000019001980168C86820F04000C8600199CA
:10313000202081F841000198FFF742FD002002B0F5
:1031400080BD000082B00190FFE7FFE701980068B2
:1031500050E8030F20F0C0000090FFE700990198AD
:10316000026842E803100028F0D1FFE7FFE7019969
:10317000202081F8410002B07047000080B586B081
:103180000490049890F84200222840F0A480FFE7C1
:1031900004988068B0F5805F15D1FFE70498006956
:1031A00088B9FFE7002003900498806A0290049891
:1031B000006840686FF35F20029908800499886A6C
:1031C0000230886225E00498806A03900020029013
:1031D00004988068B0F5805F08D0FFE704988068A5
:1031E00050B9FFE70498006930B9FFE70498006818
:1031F00040680399087007E004980068406800F090
:103200007F0003990870FFE70499886A013088629B
:10321000FFE70499C88D0138C8850004002856D1FD
:10322000FFE704980168C86820F02000C86004988F
:103230000168C86820F48070C86004980168486913
:1032400020F0010048610499202081F8420004998F
:10325000002048630498006B012830D1FFE70499EF
:1032600000200863FFE7FFE70498006850E8030FB9
:1032700020F010000190FFE701990498026842E8ED
:1032800003100028F0D1FFE7FFE70498006800680A
:10329000C00600280ED5FFE7FFE700200090049845
:1032A00000680068009004980068406800900098EA
:1032B000FFE7FFE70498818DFEF7C8FF03E004985D
:1032C000FFF7DEFBFFE700208DF8170007E0002086
:1032D0008DF8170003E002208DF81700FFE79DF836
:1032E000170006B080BD000080B586B00590059837
:1032F0000068006920F44050059A1168D2681043B4
:103300000861059988680B694A69C96918431043BF
:103310000843049005980068C06849F20C6188432E
:103320000499084305990968C860059800684069D0
:1033300020F44070059A116892691043486105981D
:10334000006841F20001C4F20101884209D0FFE7A0
:103350000598006841F20041C4F20101884204D19D
:10336000FFE7FEF723FB039003E0FEF70DFB03905E
:10337000FFE70598C069B0F5004F29D1FFE7039832
:103380001921A0FB0101059A1368029353685A00A2
:10339000DB0FFCF727FF0299864648F21F53C5F260
:1033A000EB13AEFB0320420910014FF0640C02FB4B
:1033B0001CEC322202EBCC02A2FB0332F82303EA1C
:1033C000521300EB4300C2F342121044886026E01F
:1033D00003981921A0FB0101059A13680193536812
:1033E0009A009B0FFCF7FEFE0199844648F21F529B
:1033F000C5F2EB12ACFB02304309642003FB10CC96
:10340000322000EB0C10A0FB0202F02000EA521068
:1034100000EB0310C2F3431210448860FFE706B0CC
:1034200080BD000080B588B007900691ADF81620E9
:10343000069807998862BDF816000799888507994C
:1034400000204864079A222182F842100799CA6B2B
:1034500042F66171C0F60001D1630799CA6B43F26D
:103460005501C0F6000111640799CA6B42F6E56187
:10347000C0F60001D1640799C96B086506A80490DD
:1034800007980168C06B0431049A1268BDF81630C1
:10349000FDF796FDFFE7002003900798006800689D
:1034A000039007980068406803900398FFE7079827
:1034B0000069A0B1FFE7FFE7FFE70798006850E861
:1034C000030F40F480700290FFE7029907980268AA
:1034D00042E803100028F0D1FFE7FFE7FFE7FFE72E
:1034E000FFE70798006850E8050F40F001000190E1
:1034F000FFE701990798026842E805100028F0D11B
:10350000FFE7FFE7FFE7FFE70798006850E8050FD0
:1035100040F040000090FFE700990798026842E8F9
:1035200005100028F0D1FFE7FFE7002008B080BDBC
:1035300083B00190019890F8410021283AD1FFE72B
:1035400001988068B0F5805F13D1FFE701980069AA
:1035500078B9FFE70198006A0090009800886FF33F
:103560005F200199096848600199086A0230086281
:1035700008E0019A106A411C1162007801990968FB
:103580004860FFE70199C88C0138C884000468B915
:10359000FFE701980168C86820F08000C8600198C2
:1035A0000168C86840F04000C860FFE700208DF85F
:1035B0000B0003E002208DF80B00FFE79DF80B00E5
:1035C00003B0704780B586B0DDF820C00490039149
:1035D0008DF80B200193FFE70498006800680399B9
:1035E0000840401AB0FA80F040099DF80B1088425C
:1035F0004DD1FFE708980130002847D0FFE7FDF7DD
:103600006FFF0199401A0899884203D8FFE708988C
:1036100020B9FFE703208DF817003CE0049800680C
:10362000C0684007002830D5FFE7039880282CD0D9
:10363000FFE70398402828D0FFE704980068006857
:1036400000F008010120B0EBD10F1DD1FFE7FFE72B
:1036500000200090049800680068009004980068BA
:10366000406800900098FFE70498FFF70DFD04996B
:1036700008204864FFE70499002081F84000FFE734
:1036800001208DF8170006E0FFE7FFE7A4E7002020
:103690008DF81700FFE79DF8170006B080BD000009
:1036A00080B540F28410C2F20000FEF705FF80BD35
:1036B000FFE7FEE785B004900391ADF80A20039878
:1036C000019000208DF80300FFE79DF80300BDF88E
:1036D0000A10884219DAFFE7FFE7049800680068DB
:1036E00000F08000802801D0FFE7F6E7019800781D
:1036F000049909684860019801300190FFE79DF83E
:10370000030001308DF80300DFE705B070470000CB
:1037100081B08DF803009DF9030000280ED4FFE767
:103720009DF9031001F01F02012090404A094EF25A
:103730000011CEF2000141F82200FFE701B070470E
:103740004EF60C50CEF200000068C0F30220704725
:1037500082B08DF8070000919DF9070000280AD477
:10376000FFE7009800019DF907104EF20042CEF2EB
:10377000000288540BE0009800019DF8071001F04A
:103780000F014EF61452CEF200028854FFE702B049
:103790007047000083B00290029800F0070000908C
:1037A0004EF60C51CEF200010868019001984FF6D8
:1037B000FF02104001900198009A40EA0220002286
:1037C000C0F2FA52104301900198086003B07047AC
:1037D00080B582B000200190FDF796FEFFF7FEFA5B
:1037E000FFF712FAFFF7F2F9FFF722FAFFF792FA62
:1037F00044F22D20C0F6000000F002F8FFE7FEE7DB
:1038000083B080B583B0079306920591029005A816
:1038100001900298019900F005F803B0BDE88040DE
:1038200003B0704780B5B6B0359134903499359A6D
:1038300002A800F015F801280FDBFFE702A80190AD
:10384000FCF713FD019982B240F28410C2F200002D
:103850006FF07F43FFF71CF9FFE736B080BD000033
:1038600037B514460846064B6A46214600F0DCF898
:1038700004466946002000F06EFC20463EBD000074
:103880005741000802E008C8121F08C1002AFAD1F7
:1038900070477047002001E001C1121F002AFBD1D0
:1038A000704700002DE9FF5F82B00021DDE90430A0
:1038B000020DDDF840B0034318D044F61050A2F2D8
:1038C000FF3242431514119801281FD0A5EB0B00BD
:1038D000401C5FEA000A4FF000064E4FDFF83891B7
:1038E000B046504615D5CAF1000413E011980124E2
:1038F0004AA3012801D16FEA0B010298119AC0E98D
:103900000031C0E9024206B0BDE8F09FCBF10000F3
:10391000DFE704460021404A491842EB0450CDE954
:10392000001012E0E00707D032463B4640464946C9
:10393000FCF78CFD8046894632463B4610461946C8
:10394000FCF784FD06460F466410002CEAD1DDE941
:103950000401DDE90023BAF1000F06DAFCF776FD79
:1039600042464B46FCF772FD05E0FCF7E1FD42469E
:103970004B46FCF7DDFD04460E460022284BFCF7C3
:103980005FFE03D84FF0FF30014607E00022254BD1
:1039900020463146FCF7B3FCFCF739FE102409E061
:1039A000002C0ADB0A220023FCF71CFC039B3032AC
:1039B0001A55641E50EA0102F2D1641C039AC4F144
:1039C00011031444119A012A03D0012208430DD196
:1039D0000AE0084304D000204FF0110B119072E769
:1039E000A3EB0B056D1E0DE05B4504DD4FF00002FF
:1039F00005F1010504E003DA4FF00002A5F101052D
:103A0000002AECD002981199C0E90231C0E90045C2
:103A100079E70000000014400000F03F3000000093
:103A20000000F0430000E03F2DE9FF4F95B09B46BA
:103A30008946064600250FE2252877D1002427462F
:103A4000F84A0121059400E0044316F8013F203BA9
:103A500001FA03F01042F7D130782A2811D06FF024
:103A60002F033078A0F13002092A16D8059A44F0C5
:103A7000020402EB820203EB42021044761C059022
:103A8000EFE759F8042B0592002A03DA504244F478
:103A90000054059044F00204761C30782E2816D18C
:103AA00016F8010F44F004042A280DD06FF02F02FD
:103AB0003078A0F13003092B09D807EB870302EB1C
:103AC0004303C718761CF3E759F8047B761C30785B
:103AD0006C280FD006DC4C2817D068280DD06A2837
:103AE00014D104E0742810D07A280FD10DE044F4EA
:103AF00000140AE044F4801401E044F440147278A5
:103B0000824202D104F58014761C761C3078662837
:103B10000BD013DC582877D009DC002875D0452855
:103B2000F6D04628F4D047281AD19DE118E0632842
:103B300035D0642879D0652812D195E1702873D0EA
:103B400008DC6728F1D069286FD06E280DD06F2867
:103B500006D1B5E073282CD0752875D0782874D09C
:103B60005A46179990476D1C75E1C4F3025002281C
:103B700009D003280DD0D9F8001004280DD00D600D
:103B800009F1040967E1D9F80010EA17C1E9005208
:103B9000F6E7D9F800100D80F2E70D70F0E719F89C
:103BA000041B8DF8001000208DF80100EA4601206A
:103BB00003E059F804AB4FF0FF3061074FF000010C
:103BC00002D40DE008F101018846B9420FDA8045C0
:103BD000F8DB1AF808100029F4D108E008F1010117
:103BE00088468142FADB1AF808100029F6D10598B8
:103BF0005B46A0EB080721463846179A00F094FA76
:103C0000284400EB080507E04DE029E10DE01AF833
:103C1000010B5A4617999047B8F10108F7D25B4655
:103C200021463846179A13E142E00A220092C4F373
:103C300002524FF0000A022A08D059F804CB032A96
:103C40004FEAEC710AD00DE029E02AE009F1070102
:103C500021F00702F2E802C1914609E00FFA8CFC5C
:103C60004FEAEC71042A03D14FFA8CFC4FEAEC7155
:103C7000002907DA0A460021DCF1000C61EB0201A1
:103C80002D2202E0220504D52B228DF804200122EA
:103C900003E0E20701D02022F7E7904659E00A212D
:103CA00002E010220DE010214FF0000A00910BE01D
:103CB00010224FF0000A44F004040827009203E0A9
:103CC00008224FF0000A0092C4F30252022A05D0E3
:103CD00059F804CB0021032A08D009E009F10701B3
:103CE00021F00702F2E802C1914605E01FFA8CFCC0
:103CF000042A01D10CF0FF0C4FF00008220728D550
:103D0000702806D0009B83F0100353EA0A0305D005
:103D10000EE040228DF80420012208E05CEA010256
:103D200006D030228DF804208DF80500022290463E
:103D3000009B83F0080353EA0A030AD15CEA0102FC
:103D400001D1620705D530228DF804204FF001081B
:103D50007F1E582804D034A003900EA802900DE0D6
:103D600036A0F9E753466046009AFCF73BFA8446D2
:103D70000398825C0298401E029002705CEA010087
:103D8000F0D1029806A9081A00F1200A600702D5AE
:103D900024F4803400E00127574502DDA7EB0A0038
:103DA00000E0002000EB0A01009005984144401A11
:103DB0000590E00306D45B462146179A059800F06B
:103DC000B3F90544002706E001A85A46C05D1799DB
:103DD00090476D1C7F1C4745F6DBE0030CD55B4626
:103DE0002146179A059800F09FF9054404E0302019
:103DF0005A46179990476D1C0099481E009000295B
:103E0000F5DC08E0029802995A460078491C0291B4
:103E1000179990476D1CBAF10001AAF1010AF1DC73
:103E200065E100000928010030313233343536377E
:103E300038396162636465660000000030313233F6
:103E40003435363738394142434445460000000096
:103E500000F058F90544761C307800287FF4ECAD6A
:103E600019B02846BDE8F08F620700D4062709F193
:103E7000070222F0070CFCE80223E14603F00048A9
:103E80005FEA080C02D00FF2702C0DE05FEA045CD0
:103E900002D50FF2682C07E05FEAC47C02D00FF273
:103EA000602C01E0AFF2700C4FF0FF3823F00043BC
:103EB000CDF850C065280CD006DC452809D046282E
:103EC0001DD047283DD13DE0662818D067287ED117
:103ED00038E00021112F01DB112000E0781CCDE932
:103EE000000106A90EA8FFF7DDFCDDE90F010E9A1F
:103EF00003910021009207F1010A04914DE04FF077
:103F000000400097CDE9011006A90EA8FFF7CAFCF2
:103F1000DDE90F0203920E9B11990022DDF80CA03F
:103F20000093049211B9791C00EB010AB7EB0A0067
:103F300004D4C0F1FF3007F1010A0490AAEB070096
:103F4000019044E0012F00DA01270021112F01DD4B
:103F5000112000E03846CDE9000106A90EA8FFF7C0
:103F6000A1FCDDE90F010E9A03910021049100925A
:103F7000BA4621070CD40399514500DA8A46BAF1B2
:103F8000010F05DD009AAAF10101515C302908D02A
:103F9000B84202DA10F1040F06DA0121CDE901106E
:103FA00015E0AAF10101E9E7002805DC04990144C4
:103FB0000491AAEB000102E0411C514500DD8A4654
:103FC0000499401A401C01904FF0004002902007D5
:103FD00004D40198504501DBCDF8048000208DF811
:103FE0004F0002980DF14F07B0F1004F25D02B2064
:103FF0000E9002984FF0020800280CDA404202901E
:104000002D200E9007E00A210298FCF743F9303189
:10401000029007F8011DB8F10001A8F10108F2DCD7
:1040200002980028EFD1791E0E980870307800F0C1
:10403000200040F0450007F8020D12A8C01B00F157
:1040400007081498007800B1012000EB0A010198DC
:1040500001EBE07105984144401A401E0590E003D1
:1040600006D45B462146179A059800F05DF8054492
:104070001498007818B15A46179990476D1CE003C0
:1040800024D55B462146179A059800F04DF8054463
:104090001CE00498002807DBDDE90301884203DD0A
:1040A0000098405C179901E0179930205A469047D4
:1040B000049805F10105401C04900198401E0190F0
:1040C00004D12E205A46179990476D1CBAF1000171
:1040D000AAF1010ADDDC05E017F8010B5A46179931
:1040E00090476D1CB8F10001A8F10108F4DC5B46B3
:1040F0002146179A0598ABE62D0000002B00000022
:10410000200000002DE9F041044600251E46174618
:10411000880404D405E039462020B0476D1C641E95
:10412000F9D52846BDE8F0812DE9F0410446002587
:104130001E469046C80301D5302700E0202788049A
:1041400004D505E041463846B0476D1C641EF9D5DC
:104150002846BDE8F0810A68531C0B601070704758
:104160000000000000000000010203040607080927
:1041700000000000010203040006101600061016DD
:104180002000202D2D76657273696F6E202020200F
:10419000202020202020204F7574707574207468B2
:1041A000652076657273696F6E20696E666F726DD9
:1041B0006174696F6E200D0A000D0A202D2D68654F
:1041C0006C70202020202020202020202020202053
:1041D000446973706C6179207468652068656C70DF
:1041E00020696E666F726D6174696F6E200D0A00D2
:1041F000596F7520617265207573696E67207468E8
:1042000065204672616EC3A76F6973272073686566
:104210006C6C2076657273696F6E20312E302C20A5
:1042200077656C636F6D65202121212100766572B1
:104230000873696F6E002D2D76657273696F6E005D
:104240002D2D68656C700000684200080000002099
:104250005800000084380008C042000858000020C0
:1042600088050000943800080D0A00000000024094
:104270000024F4000D0A5553415254204578616DD5
:10428000706C65203A20456E7465722063686172B7
:1042900061637465727320746F2066696C6C207240
:1042A0006563657074696F6E2062756666657273AA
:1042B0002E0D0A00010000001000000000000000A8
:04000005080001AD41
:00000001FF
